{"abi":[{"type":"constructor","inputs":[{"name":"_factory","type":"address","internalType":"address"},{"name":"_Weth","type":"address","internalType":"address"}],"stateMutability":"nonpayable"},{"type":"function","name":"WETH","inputs":[],"outputs":[{"name":"","type":"address","internalType":"address"}],"stateMutability":"view"},{"type":"function","name":"addLiquidity","inputs":[{"name":"tokenA","type":"address","internalType":"address"},{"name":"tokenB","type":"address","internalType":"address"},{"name":"amountAdesired","type":"uint256","internalType":"uint256"},{"name":"amountBdesired","type":"uint256","internalType":"uint256"}],"outputs":[{"name":"liquidity","type":"uint256","internalType":"uint256"}],"stateMutability":"nonpayable"},{"type":"function","name":"factory","inputs":[],"outputs":[{"name":"","type":"address","internalType":"address"}],"stateMutability":"view"},{"type":"function","name":"removeLiquidity","inputs":[{"name":"tokenA","type":"address","internalType":"address"},{"name":"tokenB","type":"address","internalType":"address"},{"name":"liquidity","type":"uint256","internalType":"uint256"}],"outputs":[{"name":"amountA","type":"uint256","internalType":"uint256"},{"name":"amountB","type":"uint256","internalType":"uint256"}],"stateMutability":"nonpayable"},{"type":"function","name":"swapExactTokensForTokens","inputs":[{"name":"amountIn","type":"uint256","internalType":"uint256"},{"name":"path","type":"address[]","internalType":"address[]"},{"name":"to","type":"address","internalType":"address"},{"name":"deadline","type":"uint256","internalType":"uint256"}],"outputs":[],"stateMutability":"nonpayable"}],"bytecode":{"object":"0x60c060405234801561000f575f5ffd5b506040516119f13803806119f1833981810160405281019061003191906100fe565b8173ffffffffffffffffffffffffffffffffffffffff1660808173ffffffffffffffffffffffffffffffffffffffff16815250508073ffffffffffffffffffffffffffffffffffffffff1660a08173ffffffffffffffffffffffffffffffffffffffff1681525050505061013c565b5f5ffd5b5f73ffffffffffffffffffffffffffffffffffffffff82169050919050565b5f6100cd826100a4565b9050919050565b6100dd816100c3565b81146100e7575f5ffd5b50565b5f815190506100f8816100d4565b92915050565b5f5f60408385031215610114576101136100a0565b5b5f610121858286016100ea565b9250506020610132858286016100ea565b9150509250929050565b60805160a0516118786101795f395f61011401525f818161030f015281816104850152818161079f01528181610876015261094601526118785ff3fe608060405234801561000f575f5ffd5b5060043610610055575f3560e01c8063ad5c464814610059578063aed1011f14610077578063c45a015514610093578063cf6c62ea146100b1578063d752fab2146100e1575b5f5ffd5b610061610112565b60405161006e9190610d81565b60405180910390f35b610091600480360381019061008c9190610e60565b610136565b005b61009b61030d565b6040516100a89190610d81565b60405180910390f35b6100cb60048036038101906100c69190610ee4565b610331565b6040516100d89190610f57565b60405180910390f35b6100fb60048036038101906100f69190610f70565b61035c565b604051610109929190610fc0565b60405180910390f35b7f000000000000000000000000000000000000000000000000000000000000000081565b80421115610179576040517f08c379a000000000000000000000000000000000000000000000000000000000815260040161017090611041565b60405180910390fd5b600284849050146101bf576040517f08c379a00000000000000000000000000000000000000000000000000000000081526004016101b6906110a9565b60405180910390fd5b83835f8181106101d2576101d16110c7565b5b90506020020160208101906101e791906110f4565b73ffffffffffffffffffffffffffffffffffffffff166323b872dd3361025c87875f818110610219576102186110c7565b5b905060200201602081019061022e91906110f4565b88886001818110610242576102416110c7565b5b905060200201602081019061025791906110f4565b610472565b886040518463ffffffff1660e01b815260040161027b9392919061111f565b6020604051808303815f875af1158015610297573d5f5f3e3d5ffd5b505050506040513d601f19601f820116820180604052508101906102bb9190611189565b506103068484808060200260200160405190810160405280939291908181526020018383602002808284375f81840152601f19601f8201169050808301925050505050505083610500565b5050505050565b7f000000000000000000000000000000000000000000000000000000000000000081565b5f5f5f61034087878787610784565b9150915061035087878484610872565b92505050949350505050565b5f5f5f6103698686610472565b90508073ffffffffffffffffffffffffffffffffffffffff166323b872dd3383876040518463ffffffff1660e01b81526004016103a89392919061111f565b6020604051808303815f875af11580156103c4573d5f5f3e3d5ffd5b505050506040513d601f19601f820116820180604052508101906103e89190611189565b508073ffffffffffffffffffffffffffffffffffffffff166389afcb44336040518263ffffffff1660e01b81526004016104229190610d81565b60408051808303815f875af115801561043d573d5f5f3e3d5ffd5b505050506040513d601f19601f8201168201806040525081019061046191906111c8565b809350819450505050935093915050565b5f5f5f61047f8585610b61565b915091507f000000000000000000000000000000000000000000000000000000000000000082826040516020016104b792919061124b565b604051602081830303815290604052805190602001206040516020016104de92919061133d565b604051602081830303815290604052805190602001205f1c9250505092915050565b5f5f835f81518110610515576105146110c7565b5b602002602001015184600181518110610531576105306110c7565b5b6020026020010151915091505f6105488383610b61565b5090505f5f6105578585610472565b73ffffffffffffffffffffffffffffffffffffffff166359bf5d396040518163ffffffff1660e01b81526004016040805180830381865afa15801561059e573d5f5f3e3d5ffd5b505050506040513d601f19601f820116820180604052508101906105c291906113c1565b915091505f826dffffffffffffffffffffffffffff168673ffffffffffffffffffffffffffffffffffffffff166370a082316105fe8989610472565b6040518263ffffffff1660e01b815260040161061a9190610d81565b602060405180830381865afa158015610635573d5f5f3e3d5ffd5b505050506040513d601f19601f8201168201806040525081019061065991906113ff565b6106639190611457565b90505f610671828585610c8b565b90505f5f8673ffffffffffffffffffffffffffffffffffffffff168973ffffffffffffffffffffffffffffffffffffffff16146106af57825f6106b2565b5f835b915091506106c08989610472565b73ffffffffffffffffffffffffffffffffffffffff1663022c0d9f83838d5f67ffffffffffffffff8111156106f8576106f761148a565b5b6040519080825280601f01601f19166020018201604052801561072a5781602001600182028036833780820191505090505b506040518563ffffffff1660e01b815260040161074a9493929190611527565b5f604051808303815f87803b158015610761575f5ffd5b505af1158015610773573d5f5f3e3d5ffd5b505050505050505050505050505050565b5f5f5f73ffffffffffffffffffffffffffffffffffffffff167f000000000000000000000000000000000000000000000000000000000000000073ffffffffffffffffffffffffffffffffffffffff1663e6a4390588886040518363ffffffff1660e01b81526004016107f8929190611571565b6020604051808303815f875af1158015610814573d5f5f3e3d5ffd5b505050506040513d601f19601f8201168201806040525081019061083891906115ac565b73ffffffffffffffffffffffffffffffffffffffff160361085e57838391509150610869565b838380925081935050505b94509492505050565b5f5f7f000000000000000000000000000000000000000000000000000000000000000073ffffffffffffffffffffffffffffffffffffffff1663e6a4390587876040518363ffffffff1660e01b81526004016108cf929190611571565b6020604051808303815f875af11580156108eb573d5f5f3e3d5ffd5b505050506040513d601f19601f8201168201806040525081019061090f91906115ac565b90505f73ffffffffffffffffffffffffffffffffffffffff168173ffffffffffffffffffffffffffffffffffffffff16036109e1577f000000000000000000000000000000000000000000000000000000000000000073ffffffffffffffffffffffffffffffffffffffff1663c9c6539687876040518363ffffffff1660e01b815260040161099f929190611571565b6020604051808303815f875af11580156109bb573d5f5f3e3d5ffd5b505050506040513d601f19601f820116820180604052508101906109df91906115ac565b505b8573ffffffffffffffffffffffffffffffffffffffff166323b872dd3383876040518463ffffffff1660e01b8152600401610a1e9392919061111f565b6020604051808303815f875af1158015610a3a573d5f5f3e3d5ffd5b505050506040513d601f19601f82011682018060405250810190610a5e9190611189565b508473ffffffffffffffffffffffffffffffffffffffff166323b872dd3383866040518463ffffffff1660e01b8152600401610a9c9392919061111f565b6020604051808303815f875af1158015610ab8573d5f5f3e3d5ffd5b505050506040513d601f19601f82011682018060405250810190610adc9190611189565b508073ffffffffffffffffffffffffffffffffffffffff16636a627842336040518263ffffffff1660e01b8152600401610b169190610d81565b6020604051808303815f875af1158015610b32573d5f5f3e3d5ffd5b505050506040513d601f19601f82011682018060405250810190610b5691906113ff565b915050949350505050565b5f5f8273ffffffffffffffffffffffffffffffffffffffff168473ffffffffffffffffffffffffffffffffffffffff1603610bd1576040517f08c379a0000000000000000000000000000000000000000000000000000000008152600401610bc890611621565b60405180910390fd5b8273ffffffffffffffffffffffffffffffffffffffff168473ffffffffffffffffffffffffffffffffffffffff1610610c0b578284610c0e565b83835b80925081935050505f73ffffffffffffffffffffffffffffffffffffffff168273ffffffffffffffffffffffffffffffffffffffff1603610c84576040517f08c379a0000000000000000000000000000000000000000000000000000000008152600401610c7b90611689565b60405180910390fd5b9250929050565b5f5f8411610cce576040517f08c379a0000000000000000000000000000000000000000000000000000000008152600401610cc590611717565b60405180910390fd5b5f6103e585610cdd9190611735565b90505f836dffffffffffffffffffffffffffff1682610cfc9190611735565b90505f826103e887610d0e9190611776565b6dffffffffffffffffffffffffffff16610d2891906117b2565b90508082610d369190611812565b93505050509392505050565b5f73ffffffffffffffffffffffffffffffffffffffff82169050919050565b5f610d6b82610d42565b9050919050565b610d7b81610d61565b82525050565b5f602082019050610d945f830184610d72565b92915050565b5f5ffd5b5f5ffd5b5f819050919050565b610db481610da2565b8114610dbe575f5ffd5b50565b5f81359050610dcf81610dab565b92915050565b5f5ffd5b5f5ffd5b5f5ffd5b5f5f83601f840112610df657610df5610dd5565b5b8235905067ffffffffffffffff811115610e1357610e12610dd9565b5b602083019150836020820283011115610e2f57610e2e610ddd565b5b9250929050565b610e3f81610d61565b8114610e49575f5ffd5b50565b5f81359050610e5a81610e36565b92915050565b5f5f5f5f5f60808688031215610e7957610e78610d9a565b5b5f610e8688828901610dc1565b955050602086013567ffffffffffffffff811115610ea757610ea6610d9e565b5b610eb388828901610de1565b94509450506040610ec688828901610e4c565b9250506060610ed788828901610dc1565b9150509295509295909350565b5f5f5f5f60808587031215610efc57610efb610d9a565b5b5f610f0987828801610e4c565b9450506020610f1a87828801610e4c565b9350506040610f2b87828801610dc1565b9250506060610f3c87828801610dc1565b91505092959194509250565b610f5181610da2565b82525050565b5f602082019050610f6a5f830184610f48565b92915050565b5f5f5f60608486031215610f8757610f86610d9a565b5b5f610f9486828701610e4c565b9350506020610fa586828701610e4c565b9250506040610fb686828701610dc1565b9150509250925092565b5f604082019050610fd35f830185610f48565b610fe06020830184610f48565b9392505050565b5f82825260208201905092915050565b7f526f757465723a204558504952454400000000000000000000000000000000005f82015250565b5f61102b600f83610fe7565b915061103682610ff7565b602082019050919050565b5f6020820190508181035f8301526110588161101f565b9050919050565b7f526f757465723a20494e56414c49445f504154480000000000000000000000005f82015250565b5f611093601483610fe7565b915061109e8261105f565b602082019050919050565b5f6020820190508181035f8301526110c081611087565b9050919050565b7f4e487b71000000000000000000000000000000000000000000000000000000005f52603260045260245ffd5b5f6020828403121561110957611108610d9a565b5b5f61111684828501610e4c565b91505092915050565b5f6060820190506111325f830186610d72565b61113f6020830185610d72565b61114c6040830184610f48565b949350505050565b5f8115159050919050565b61116881611154565b8114611172575f5ffd5b50565b5f815190506111838161115f565b92915050565b5f6020828403121561119e5761119d610d9a565b5b5f6111ab84828501611175565b91505092915050565b5f815190506111c281610dab565b92915050565b5f5f604083850312156111de576111dd610d9a565b5b5f6111eb858286016111b4565b92505060206111fc858286016111b4565b9150509250929050565b5f8160601b9050919050565b5f61121c82611206565b9050919050565b5f61122d82611212565b9050919050565b61124561124082610d61565b611223565b82525050565b5f6112568285611234565b6014820191506112668284611234565b6014820191508190509392505050565b5f81905092915050565b7fff000000000000000000000000000000000000000000000000000000000000005f82015250565b5f6112b4600183611276565b91506112bf82611280565b600182019050919050565b5f819050919050565b5f819050919050565b6112ed6112e8826112ca565b6112d3565b82525050565b7fe2635c78278505c2d38592679261352e03938029d20c35467d510ac767b2cb515f82015250565b5f611327602083611276565b9150611332826112f3565b602082019050919050565b5f611347826112a8565b91506113538285611234565b60148201915061136382846112dc565b6020820191506113728261131b565b91508190509392505050565b5f6dffffffffffffffffffffffffffff82169050919050565b6113a08161137e565b81146113aa575f5ffd5b50565b5f815190506113bb81611397565b92915050565b5f5f604083850312156113d7576113d6610d9a565b5b5f6113e4858286016113ad565b92505060206113f5858286016113ad565b9150509250929050565b5f6020828403121561141457611413610d9a565b5b5f611421848285016111b4565b91505092915050565b7f4e487b71000000000000000000000000000000000000000000000000000000005f52601160045260245ffd5b5f61146182610da2565b915061146c83610da2565b92508282039050818111156114845761148361142a565b5b92915050565b7f4e487b71000000000000000000000000000000000000000000000000000000005f52604160045260245ffd5b5f81519050919050565b5f82825260208201905092915050565b8281835e5f83830152505050565b5f601f19601f8301169050919050565b5f6114f9826114b7565b61150381856114c1565b93506115138185602086016114d1565b61151c816114df565b840191505092915050565b5f60808201905061153a5f830187610f48565b6115476020830186610f48565b6115546040830185610d72565b818103606083015261156681846114ef565b905095945050505050565b5f6040820190506115845f830185610d72565b6115916020830184610d72565b9392505050565b5f815190506115a681610e36565b92915050565b5f602082840312156115c1576115c0610d9a565b5b5f6115ce84828501611598565b91505092915050565b7f526f757465723a204944454e544943414c5f41444452455353455300000000005f82015250565b5f61160b601b83610fe7565b9150611616826115d7565b602082019050919050565b5f6020820190508181035f830152611638816115ff565b9050919050565b7f526f757465723a205a45524f5f414444524553530000000000000000000000005f82015250565b5f611673601483610fe7565b915061167e8261163f565b602082019050919050565b5f6020820190508181035f8301526116a081611667565b9050919050565b7f526f757465723a20494e53554646494349454e545f494e5055545f414d4f554e5f8201527f5400000000000000000000000000000000000000000000000000000000000000602082015250565b5f611701602183610fe7565b915061170c826116a7565b604082019050919050565b5f6020820190508181035f83015261172e816116f5565b9050919050565b5f61173f82610da2565b915061174a83610da2565b925082820261175881610da2565b9150828204841483151761176f5761176e61142a565b5b5092915050565b5f6117808261137e565b915061178b8361137e565b92508282026117998161137e565b91508082146117ab576117aa61142a565b5b5092915050565b5f6117bc82610da2565b91506117c783610da2565b92508282019050808211156117df576117de61142a565b5b92915050565b7f4e487b71000000000000000000000000000000000000000000000000000000005f52601260045260245ffd5b5f61181c82610da2565b915061182783610da2565b925082611837576118366117e5565b5b82820490509291505056fea2646970667358221220d8849d3c23735c33d1713716a89a47fe684689ec3a4613809288e5f6c4649b6964736f6c634300081c0033","linkReferences":{}},"methodIdentifiers":{"WETH()":"ad5c4648","addLiquidity(address,address,uint256,uint256)":"cf6c62ea","factory()":"c45a0155","removeLiquidity(address,address,uint256)":"d752fab2","swapExactTokensForTokens(uint256,address[],address,uint256)":"aed1011f"},"id":0}